{
  "_format": "hh-sol-artifact-1",
  "contractName": "ZettoDex",
  "sourceName": "contracts/ZettoDex.sol",
  "abi": [
    {
      "inputs": [
        {
          "internalType": "address",
          "name": "_token1",
          "type": "address"
        },
        {
          "internalType": "address",
          "name": "_token2",
          "type": "address"
        }
      ],
      "stateMutability": "nonpayable",
      "type": "constructor"
    },
    {
      "anonymous": false,
      "inputs": [
        {
          "indexed": true,
          "internalType": "address",
          "name": "provider",
          "type": "address"
        },
        {
          "indexed": false,
          "internalType": "uint256",
          "name": "amount",
          "type": "uint256"
        }
      ],
      "name": "LiquidityAdded",
      "type": "event"
    },
    {
      "anonymous": false,
      "inputs": [
        {
          "indexed": true,
          "internalType": "address",
          "name": "provider",
          "type": "address"
        },
        {
          "indexed": false,
          "internalType": "uint256",
          "name": "amount",
          "type": "uint256"
        }
      ],
      "name": "LiquidityRemoved",
      "type": "event"
    },
    {
      "anonymous": false,
      "inputs": [
        {
          "indexed": true,
          "internalType": "address",
          "name": "trader",
          "type": "address"
        },
        {
          "indexed": false,
          "internalType": "uint256",
          "name": "amountIn",
          "type": "uint256"
        },
        {
          "indexed": false,
          "internalType": "uint256",
          "name": "amountOut",
          "type": "uint256"
        }
      ],
      "name": "TokenSwapped",
      "type": "event"
    },
    {
      "inputs": [
        {
          "internalType": "uint256",
          "name": "amount1",
          "type": "uint256"
        },
        {
          "internalType": "uint256",
          "name": "amount2",
          "type": "uint256"
        }
      ],
      "name": "addLiquidity",
      "outputs": [],
      "stateMutability": "nonpayable",
      "type": "function"
    },
    {
      "inputs": [
        {
          "internalType": "address",
          "name": "",
          "type": "address"
        }
      ],
      "name": "liquidityProvided",
      "outputs": [
        {
          "internalType": "uint256",
          "name": "",
          "type": "uint256"
        }
      ],
      "stateMutability": "view",
      "type": "function"
    },
    {
      "inputs": [
        {
          "internalType": "uint256",
          "name": "liquidity",
          "type": "uint256"
        }
      ],
      "name": "removeLiquidity",
      "outputs": [],
      "stateMutability": "nonpayable",
      "type": "function"
    },
    {
      "inputs": [],
      "name": "reserve1",
      "outputs": [
        {
          "internalType": "uint256",
          "name": "",
          "type": "uint256"
        }
      ],
      "stateMutability": "view",
      "type": "function"
    },
    {
      "inputs": [],
      "name": "reserve2",
      "outputs": [
        {
          "internalType": "uint256",
          "name": "",
          "type": "uint256"
        }
      ],
      "stateMutability": "view",
      "type": "function"
    },
    {
      "inputs": [
        {
          "internalType": "contract IERC20",
          "name": "fromToken",
          "type": "address"
        },
        {
          "internalType": "contract IERC20",
          "name": "toToken",
          "type": "address"
        },
        {
          "internalType": "uint256",
          "name": "amountIn",
          "type": "uint256"
        }
      ],
      "name": "swapTokens",
      "outputs": [],
      "stateMutability": "nonpayable",
      "type": "function"
    },
    {
      "inputs": [],
      "name": "token1",
      "outputs": [
        {
          "internalType": "contract IERC20",
          "name": "",
          "type": "address"
        }
      ],
      "stateMutability": "view",
      "type": "function"
    },
    {
      "inputs": [],
      "name": "token2",
      "outputs": [
        {
          "internalType": "contract IERC20",
          "name": "",
          "type": "address"
        }
      ],
      "stateMutability": "view",
      "type": "function"
    },
    {
      "inputs": [],
      "name": "totalLiquidity",
      "outputs": [
        {
          "internalType": "uint256",
          "name": "",
          "type": "uint256"
        }
      ],
      "stateMutability": "view",
      "type": "function"
    }
  ],
  "bytecode": "0x608060405234801561001057600080fd5b5060405161193738038061193783398181016040528101906100329190610234565b600073ffffffffffffffffffffffffffffffffffffffff168273ffffffffffffffffffffffffffffffffffffffff161415801561009c5750600073ffffffffffffffffffffffffffffffffffffffff168173ffffffffffffffffffffffffffffffffffffffff1614155b6100db576040517f08c379a00000000000000000000000000000000000000000000000000000000081526004016100d2906102d1565b60405180910390fd5b8073ffffffffffffffffffffffffffffffffffffffff168273ffffffffffffffffffffffffffffffffffffffff1603610149576040517f08c379a00000000000000000000000000000000000000000000000000000000081526004016101409061033d565b60405180910390fd5b816000806101000a81548173ffffffffffffffffffffffffffffffffffffffff021916908373ffffffffffffffffffffffffffffffffffffffff16021790555080600160006101000a81548173ffffffffffffffffffffffffffffffffffffffff021916908373ffffffffffffffffffffffffffffffffffffffff160217905550505061035d565b600080fd5b600073ffffffffffffffffffffffffffffffffffffffff82169050919050565b6000610201826101d6565b9050919050565b610211816101f6565b811461021c57600080fd5b50565b60008151905061022e81610208565b92915050565b6000806040838503121561024b5761024a6101d1565b5b60006102598582860161021f565b925050602061026a8582860161021f565b9150509250929050565b600082825260208201905092915050565b7f496e76616c696420746f6b656e20616464726573730000000000000000000000600082015250565b60006102bb601583610274565b91506102c682610285565b602082019050919050565b600060208201905081810360008301526102ea816102ae565b9050919050565b7f546f6b656e73206d75737420626520646966666572656e740000000000000000600082015250565b6000610327601883610274565b9150610332826102f1565b602082019050919050565b600060208201905081810360008301526103568161031a565b9050919050565b6115cb8061036c6000396000f3fe608060405234801561001057600080fd5b50600436106100935760003560e01c806365119f721161006657806365119f72146101105780639c8f9f23146101405780639cd441da1461015c578063d21220a714610178578063ec6cc0cc1461019657610093565b806315770f921461009857806325be124e146100b65780635a76f25e146100d45780635c0b9a2b146100f2575b600080fd5b6100a06101b2565b6040516100ad9190610d9f565b60405180910390f35b6100be6101b8565b6040516100cb9190610e39565b60405180910390f35b6100dc6101de565b6040516100e99190610d9f565b60405180910390f35b6100fa6101e4565b6040516101079190610d9f565b60405180910390f35b61012a60048036038101906101259190610e97565b6101ea565b6040516101379190610d9f565b60405180910390f35b61015a60048036038101906101559190610ef0565b610202565b005b61017660048036038101906101719190610f1d565b61057e565b005b6101806108bd565b60405161018d9190610e39565b60405180910390f35b6101b060048036038101906101ab9190610f9b565b6108e1565b005b60035481565b600160009054906101000a900473ffffffffffffffffffffffffffffffffffffffff1681565b60045481565b60055481565b60026020528060005260406000206000915090505481565b6000811180156102515750600260003373ffffffffffffffffffffffffffffffffffffffff1673ffffffffffffffffffffffffffffffffffffffff168152602001908152602001600020548111155b610290576040517f08c379a00000000000000000000000000000000000000000000000000000000081526004016102879061104b565b60405180910390fd5b6000600354600454836102a3919061109a565b6102ad919061110b565b90506000600354600554846102c2919061109a565b6102cc919061110b565b905082600260003373ffffffffffffffffffffffffffffffffffffffff1673ffffffffffffffffffffffffffffffffffffffff168152602001908152602001600020600082825461031d919061113c565b925050819055508260036000828254610336919061113c565b92505081905550816004600082825461034f919061113c565b925050819055508060056000828254610368919061113c565b9250508190555060008054906101000a900473ffffffffffffffffffffffffffffffffffffffff1673ffffffffffffffffffffffffffffffffffffffff1663a9059cbb33846040518363ffffffff1660e01b81526004016103ca92919061117f565b6020604051808303816000875af11580156103e9573d6000803e3d6000fd5b505050506040513d601f19601f8201168201806040525081019061040d91906111e0565b61044c576040517f08c379a000000000000000000000000000000000000000000000000000000000815260040161044390611259565b60405180910390fd5b600160009054906101000a900473ffffffffffffffffffffffffffffffffffffffff1673ffffffffffffffffffffffffffffffffffffffff1663a9059cbb33836040518363ffffffff1660e01b81526004016104a992919061117f565b6020604051808303816000875af11580156104c8573d6000803e3d6000fd5b505050506040513d601f19601f820116820180604052508101906104ec91906111e0565b61052b576040517f08c379a0000000000000000000000000000000000000000000000000000000008152600401610522906112c5565b60405180910390fd5b3373ffffffffffffffffffffffffffffffffffffffff167fc2c3f06e49b9f15e7b4af9055e183b0d73362e033ad82a07dec9bf9840171719846040516105719190610d9f565b60405180910390a2505050565b60008211801561058e5750600081115b6105cd576040517f08c379a00000000000000000000000000000000000000000000000000000000081526004016105c490611331565b60405180910390fd5b60008054906101000a900473ffffffffffffffffffffffffffffffffffffffff1673ffffffffffffffffffffffffffffffffffffffff166323b872dd3330856040518463ffffffff1660e01b815260040161062a93929190611351565b6020604051808303816000875af1158015610649573d6000803e3d6000fd5b505050506040513d601f19601f8201168201806040525081019061066d91906111e0565b6106ac576040517f08c379a00000000000000000000000000000000000000000000000000000000081526004016106a390611259565b60405180910390fd5b600160009054906101000a900473ffffffffffffffffffffffffffffffffffffffff1673ffffffffffffffffffffffffffffffffffffffff166323b872dd3330846040518463ffffffff1660e01b815260040161070b93929190611351565b6020604051808303816000875af115801561072a573d6000803e3d6000fd5b505050506040513d601f19601f8201168201806040525081019061074e91906111e0565b61078d576040517f08c379a0000000000000000000000000000000000000000000000000000000008152600401610784906112c5565b60405180910390fd5b600080600354036107ab5782816107a49190611388565b90506107c9565b600454600354846107bc919061109a565b6107c6919061110b565b90505b80600260003373ffffffffffffffffffffffffffffffffffffffff1673ffffffffffffffffffffffffffffffffffffffff16815260200190815260200160002060008282546108189190611388565b9250508190555080600360008282546108319190611388565b92505081905550826004600082825461084a9190611388565b9250508190555081600560008282546108639190611388565b925050819055503373ffffffffffffffffffffffffffffffffffffffff167fc17cea59c2955cb181b03393209566960365771dbba9dc3d510180e7cb312088826040516108b09190610d9f565b60405180910390a2505050565b60008054906101000a900473ffffffffffffffffffffffffffffffffffffffff1681565b60008111610924576040517f08c379a000000000000000000000000000000000000000000000000000000000815260040161091b90611408565b60405180910390fd5b60008054906101000a900473ffffffffffffffffffffffffffffffffffffffff1673ffffffffffffffffffffffffffffffffffffffff168373ffffffffffffffffffffffffffffffffffffffff161480156109cc5750600160009054906101000a900473ffffffffffffffffffffffffffffffffffffffff1673ffffffffffffffffffffffffffffffffffffffff168273ffffffffffffffffffffffffffffffffffffffff16145b80610a7b5750600160009054906101000a900473ffffffffffffffffffffffffffffffffffffffff1673ffffffffffffffffffffffffffffffffffffffff168373ffffffffffffffffffffffffffffffffffffffff16148015610a7a575060008054906101000a900473ffffffffffffffffffffffffffffffffffffffff1673ffffffffffffffffffffffffffffffffffffffff168273ffffffffffffffffffffffffffffffffffffffff16145b5b610aba576040517f08c379a0000000000000000000000000000000000000000000000000000000008152600401610ab190611474565b60405180910390fd5b8273ffffffffffffffffffffffffffffffffffffffff166323b872dd3330846040518463ffffffff1660e01b8152600401610af793929190611351565b6020604051808303816000875af1158015610b16573d6000803e3d6000fd5b505050506040513d601f19601f82011682018060405250810190610b3a91906111e0565b610b79576040517f08c379a0000000000000000000000000000000000000000000000000000000008152600401610b70906114e0565b60405180910390fd5b60008060009054906101000a900473ffffffffffffffffffffffffffffffffffffffff1673ffffffffffffffffffffffffffffffffffffffff168473ffffffffffffffffffffffffffffffffffffffff1603610c235760045460055483610be0919061109a565b610bea919061110b565b90508160046000828254610bfe9190611388565b925050819055508060056000828254610c17919061113c565b92505081905550610c73565b60055460045483610c34919061109a565b610c3e919061110b565b90508160056000828254610c529190611388565b925050819055508060046000828254610c6b919061113c565b925050819055505b8273ffffffffffffffffffffffffffffffffffffffff1663a9059cbb33836040518363ffffffff1660e01b8152600401610cae92919061117f565b6020604051808303816000875af1158015610ccd573d6000803e3d6000fd5b505050506040513d601f19601f82011682018060405250810190610cf191906111e0565b610d30576040517f08c379a0000000000000000000000000000000000000000000000000000000008152600401610d279061154c565b60405180910390fd5b3373ffffffffffffffffffffffffffffffffffffffff167fd5a1cd88ddd329cc1ddf861a21708efa9ef3136b88e1420c21f91ef6f95ad0248383604051610d7892919061156c565b60405180910390a250505050565b6000819050919050565b610d9981610d86565b82525050565b6000602082019050610db46000830184610d90565b92915050565b600073ffffffffffffffffffffffffffffffffffffffff82169050919050565b6000819050919050565b6000610dff610dfa610df584610dba565b610dda565b610dba565b9050919050565b6000610e1182610de4565b9050919050565b6000610e2382610e06565b9050919050565b610e3381610e18565b82525050565b6000602082019050610e4e6000830184610e2a565b92915050565b600080fd5b6000610e6482610dba565b9050919050565b610e7481610e59565b8114610e7f57600080fd5b50565b600081359050610e9181610e6b565b92915050565b600060208284031215610ead57610eac610e54565b5b6000610ebb84828501610e82565b91505092915050565b610ecd81610d86565b8114610ed857600080fd5b50565b600081359050610eea81610ec4565b92915050565b600060208284031215610f0657610f05610e54565b5b6000610f1484828501610edb565b91505092915050565b60008060408385031215610f3457610f33610e54565b5b6000610f4285828601610edb565b9250506020610f5385828601610edb565b9150509250929050565b6000610f6882610e59565b9050919050565b610f7881610f5d565b8114610f8357600080fd5b50565b600081359050610f9581610f6f565b92915050565b600080600060608486031215610fb457610fb3610e54565b5b6000610fc286828701610f86565b9350506020610fd386828701610f86565b9250506040610fe486828701610edb565b9150509250925092565b600082825260208201905092915050565b7f496e76616c6964206c697175696469747920616d6f756e740000000000000000600082015250565b6000611035601883610fee565b915061104082610fff565b602082019050919050565b6000602082019050818103600083015261106481611028565b9050919050565b7f4e487b7100000000000000000000000000000000000000000000000000000000600052601160045260246000fd5b60006110a582610d86565b91506110b083610d86565b92508282026110be81610d86565b915082820484148315176110d5576110d461106b565b5b5092915050565b7f4e487b7100000000000000000000000000000000000000000000000000000000600052601260045260246000fd5b600061111682610d86565b915061112183610d86565b925082611131576111306110dc565b5b828204905092915050565b600061114782610d86565b915061115283610d86565b925082820390508181111561116a5761116961106b565b5b92915050565b61117981610e59565b82525050565b60006040820190506111946000830185611170565b6111a16020830184610d90565b9392505050565b60008115159050919050565b6111bd816111a8565b81146111c857600080fd5b50565b6000815190506111da816111b4565b92915050565b6000602082840312156111f6576111f5610e54565b5b6000611204848285016111cb565b91505092915050565b7f546f6b656e2031207472616e73666572206661696c6564000000000000000000600082015250565b6000611243601783610fee565b915061124e8261120d565b602082019050919050565b6000602082019050818103600083015261127281611236565b9050919050565b7f546f6b656e2032207472616e73666572206661696c6564000000000000000000600082015250565b60006112af601783610fee565b91506112ba82611279565b602082019050919050565b600060208201905081810360008301526112de816112a2565b9050919050565b7f416d6f756e7473206d757374206265206d6f7265207468616e20300000000000600082015250565b600061131b601b83610fee565b9150611326826112e5565b602082019050919050565b6000602082019050818103600083015261134a8161130e565b9050919050565b60006060820190506113666000830186611170565b6113736020830185611170565b6113806040830184610d90565b949350505050565b600061139382610d86565b915061139e83610d86565b92508282019050808211156113b6576113b561106b565b5b92915050565b7f496e73756666696369656e7420616d6f756e7420696e70757400000000000000600082015250565b60006113f2601983610fee565b91506113fd826113bc565b602082019050919050565b60006020820190508181036000830152611421816113e5565b9050919050565b7f496e76616c696420746f6b656e20706169720000000000000000000000000000600082015250565b600061145e601283610fee565b915061146982611428565b602082019050919050565b6000602082019050818103600083015261148d81611451565b9050919050565b7f496e70757420746f6b656e207472616e73666572206661696c65640000000000600082015250565b60006114ca601b83610fee565b91506114d582611494565b602082019050919050565b600060208201905081810360008301526114f9816114bd565b9050919050565b7f4f757470757420746f6b656e207472616e73666572206661696c656400000000600082015250565b6000611536601c83610fee565b915061154182611500565b602082019050919050565b6000602082019050818103600083015261156581611529565b9050919050565b60006040820190506115816000830185610d90565b61158e6020830184610d90565b939250505056fea2646970667358221220a81fc729db303a03183f5d2b790cc35a764562554a545eb7b94d317c3a2091dc64736f6c634300081b0033",
  "linkReferences": {},
  "deployedLinkReferences": {}
}