{
  "_format": "hh-sol-artifact-1",
  "contractName": "ZettoDex",
  "sourceName": "contracts/ZettoDex.sol",
  "abi": [
    {
      "inputs": [
        {
          "internalType": "address",
          "name": "_token1",
          "type": "address"
        },
        {
          "internalType": "address",
          "name": "_token2",
          "type": "address"
        }
      ],
      "stateMutability": "nonpayable",
      "type": "constructor"
    },
    {
      "anonymous": false,
      "inputs": [
        {
          "indexed": true,
          "internalType": "address",
          "name": "provider",
          "type": "address"
        },
        {
          "indexed": false,
          "internalType": "uint256",
          "name": "amount",
          "type": "uint256"
        }
      ],
      "name": "LiquidityAdded",
      "type": "event"
    },
    {
      "anonymous": false,
      "inputs": [
        {
          "indexed": true,
          "internalType": "address",
          "name": "provider",
          "type": "address"
        },
        {
          "indexed": false,
          "internalType": "uint256",
          "name": "amount",
          "type": "uint256"
        }
      ],
      "name": "LiquidityRemoved",
      "type": "event"
    },
    {
      "anonymous": false,
      "inputs": [
        {
          "indexed": true,
          "internalType": "address",
          "name": "trader",
          "type": "address"
        },
        {
          "indexed": false,
          "internalType": "uint256",
          "name": "amountIn",
          "type": "uint256"
        },
        {
          "indexed": false,
          "internalType": "uint256",
          "name": "amountOut",
          "type": "uint256"
        }
      ],
      "name": "TokenSwapped",
      "type": "event"
    },
    {
      "inputs": [
        {
          "internalType": "uint256",
          "name": "amount1",
          "type": "uint256"
        },
        {
          "internalType": "uint256",
          "name": "amount2",
          "type": "uint256"
        }
      ],
      "name": "addLiquidity",
      "outputs": [],
      "stateMutability": "nonpayable",
      "type": "function"
    },
    {
      "inputs": [
        {
          "internalType": "address",
          "name": "",
          "type": "address"
        }
      ],
      "name": "liquidityProvided",
      "outputs": [
        {
          "internalType": "uint256",
          "name": "",
          "type": "uint256"
        }
      ],
      "stateMutability": "view",
      "type": "function"
    },
    {
      "inputs": [
        {
          "internalType": "uint256",
          "name": "liquidity",
          "type": "uint256"
        }
      ],
      "name": "removeLiquidity",
      "outputs": [],
      "stateMutability": "nonpayable",
      "type": "function"
    },
    {
      "inputs": [],
      "name": "reserve1",
      "outputs": [
        {
          "internalType": "uint256",
          "name": "",
          "type": "uint256"
        }
      ],
      "stateMutability": "view",
      "type": "function"
    },
    {
      "inputs": [],
      "name": "reserve2",
      "outputs": [
        {
          "internalType": "uint256",
          "name": "",
          "type": "uint256"
        }
      ],
      "stateMutability": "view",
      "type": "function"
    },
    {
      "inputs": [
        {
          "internalType": "contract IERC20",
          "name": "fromToken",
          "type": "address"
        },
        {
          "internalType": "contract IERC20",
          "name": "toToken",
          "type": "address"
        },
        {
          "internalType": "uint256",
          "name": "amountIn",
          "type": "uint256"
        }
      ],
      "name": "swapTokens",
      "outputs": [],
      "stateMutability": "nonpayable",
      "type": "function"
    },
    {
      "inputs": [],
      "name": "token1",
      "outputs": [
        {
          "internalType": "contract IERC20",
          "name": "",
          "type": "address"
        }
      ],
      "stateMutability": "view",
      "type": "function"
    },
    {
      "inputs": [],
      "name": "token2",
      "outputs": [
        {
          "internalType": "contract IERC20",
          "name": "",
          "type": "address"
        }
      ],
      "stateMutability": "view",
      "type": "function"
    },
    {
      "inputs": [],
      "name": "totalLiquidity",
      "outputs": [
        {
          "internalType": "uint256",
          "name": "",
          "type": "uint256"
        }
      ],
      "stateMutability": "view",
      "type": "function"
    }
  ],
  "bytecode": "0x608060405234801561001057600080fd5b506040516120f23803806120f283398181016040528101906100329190610355565b61004c67f7c813b65a8e21bf60c01b6102ef60201b60201c565b610066672d9dc703054bc36b60c01b6102ef60201b60201c565b6100806763b939b3a65b021060c01b6102ef60201b60201c565b61009a67f1bd2666bba6f8cd60c01b6102ef60201b60201c565b600073ffffffffffffffffffffffffffffffffffffffff168273ffffffffffffffffffffffffffffffffffffffff16141580156101045750600073ffffffffffffffffffffffffffffffffffffffff168173ffffffffffffffffffffffffffffffffffffffff1614155b610143576040517f08c379a000000000000000000000000000000000000000000000000000000000815260040161013a906103f2565b60405180910390fd5b61015d67c24fecff6f4d1bbd60c01b6102ef60201b60201c565b610177678975a22a15cfb22160c01b6102ef60201b60201c565b610191674b618f2298800d1260c01b6102ef60201b60201c565b6101ab675210821543be272760c01b6102ef60201b60201c565b8073ffffffffffffffffffffffffffffffffffffffff168273ffffffffffffffffffffffffffffffffffffffff1603610219576040517f08c379a00000000000000000000000000000000000000000000000000000000081526004016102109061045e565b60405180910390fd5b610233675a810eeb0a15422260c01b6102ef60201b60201c565b61024d673e8160253b3b61ef60c01b6102ef60201b60201c565b816000806101000a81548173ffffffffffffffffffffffffffffffffffffffff021916908373ffffffffffffffffffffffffffffffffffffffff1602179055506102a767d7deeb24f858659b60c01b6102ef60201b60201c565b80600160006101000a81548173ffffffffffffffffffffffffffffffffffffffff021916908373ffffffffffffffffffffffffffffffffffffffff160217905550505061047e565b50565b600080fd5b600073ffffffffffffffffffffffffffffffffffffffff82169050919050565b6000610322826102f7565b9050919050565b61033281610317565b811461033d57600080fd5b50565b60008151905061034f81610329565b92915050565b6000806040838503121561036c5761036b6102f2565b5b600061037a85828601610340565b925050602061038b85828601610340565b9150509250929050565b600082825260208201905092915050565b7f496e76616c696420746f6b656e20616464726573730000000000000000000000600082015250565b60006103dc601583610395565b91506103e7826103a6565b602082019050919050565b6000602082019050818103600083015261040b816103cf565b9050919050565b7f546f6b656e73206d75737420626520646966666572656e740000000000000000600082015250565b6000610448601883610395565b915061045382610412565b602082019050919050565b600060208201905081810360008301526104778161043b565b9050919050565b611c658061048d6000396000f3fe608060405234801561001057600080fd5b50600436106100935760003560e01c806365119f721161006657806365119f72146101105780639c8f9f23146101405780639cd441da1461015c578063d21220a714610178578063ec6cc0cc1461019657610093565b806315770f921461009857806325be124e146100b65780635a76f25e146100d45780635c0b9a2b146100f2575b600080fd5b6100a06101b2565b6040516100ad9190611439565b60405180910390f35b6100be6101b8565b6040516100cb91906114d3565b60405180910390f35b6100dc6101de565b6040516100e99190611439565b60405180910390f35b6100fa6101e4565b6040516101079190611439565b60405180910390f35b61012a60048036038101906101259190611531565b6101ea565b6040516101379190611439565b60405180910390f35b61015a6004803603810190610155919061158a565b610202565b005b610176600480360381019061017191906115b7565b61074a565b005b610180610ca6565b60405161018d91906114d3565b60405180910390f35b6101b060048036038101906101ab9190611635565b610cca565b005b60035481565b600160009054906101000a900473ffffffffffffffffffffffffffffffffffffffff1681565b60045481565b60055481565b60026020528060005260406000206000915090505481565b610216670d3ef6033611889060c01b611412565b61022a67a710f802fe2bff6c60c01b611412565b61023e6726059b3ec9862cc360c01b611412565b61025267408727c776a32d7d60c01b611412565b6000811180156102a15750600260003373ffffffffffffffffffffffffffffffffffffffff1673ffffffffffffffffffffffffffffffffffffffff168152602001908152602001600020548111155b6102e0576040517f08c379a00000000000000000000000000000000000000000000000000000000081526004016102d7906116e5565b60405180910390fd5b6102f467679fc9a6cfed020d60c01b611412565b61030867efcd2b0d5b17214460c01b611412565b61031c67fcc10af626b31cf960c01b611412565b60006003546004548361032f9190611734565b61033991906117a5565b905061034f673f0e85828c372d7d60c01b611412565b610363670b84973826d4d60160c01b611412565b6000600354600554846103769190611734565b61038091906117a5565b90506103966796d5f015bdc48fde60c01b611412565b82600260003373ffffffffffffffffffffffffffffffffffffffff1673ffffffffffffffffffffffffffffffffffffffff16815260200190815260200160002060008282546103e591906117d6565b92505081905550610400676ad05dbb27a24c9360c01b611412565b826003600082825461041291906117d6565b9250508190555061042d67273831c282a735d060c01b611412565b816004600082825461043f91906117d6565b9250508190555061045a671d44affdc3e9bb1660c01b611412565b806005600082825461046c91906117d6565b92505081905550610487671a76bdf29a6cdcec60c01b611412565b61049b67a638fb91dc9a1bce60c01b611412565b6104af67e609c2ad84862bfc60c01b611412565b60008054906101000a900473ffffffffffffffffffffffffffffffffffffffff1673ffffffffffffffffffffffffffffffffffffffff1663a9059cbb33846040518363ffffffff1660e01b815260040161050a929190611819565b6020604051808303816000875af1158015610529573d6000803e3d6000fd5b505050506040513d601f19601f8201168201806040525081019061054d919061187a565b61058c576040517f08c379a0000000000000000000000000000000000000000000000000000000008152600401610583906118f3565b60405180910390fd5b6105a06774d2f790e6918eb260c01b611412565b6105b46750b39fd19fb568ff60c01b611412565b6105c867dc33d5eaf373ad0960c01b611412565b6105dc67906a860fedd9eba960c01b611412565b600160009054906101000a900473ffffffffffffffffffffffffffffffffffffffff1673ffffffffffffffffffffffffffffffffffffffff1663a9059cbb33836040518363ffffffff1660e01b8152600401610639929190611819565b6020604051808303816000875af1158015610658573d6000803e3d6000fd5b505050506040513d601f19601f8201168201806040525081019061067c919061187a565b6106bb576040517f08c379a00000000000000000000000000000000000000000000000000000000081526004016106b29061195f565b60405180910390fd5b6106cf673922525e63ae7e4160c01b611412565b6106e367e152b685b359084c60c01b611412565b6106f7678bcbe4d642d0c4de60c01b611412565b3373ffffffffffffffffffffffffffffffffffffffff167fc2c3f06e49b9f15e7b4af9055e183b0d73362e033ad82a07dec9bf98401717198460405161073d9190611439565b60405180910390a2505050565b61075e675c31aa801d1951f160c01b611412565b61077267c2931ab05f751f0560c01b611412565b61078667fd10d2e336845cb360c01b611412565b61079a6715a975688737fbf560c01b611412565b6000821180156107aa5750600081115b6107e9576040517f08c379a00000000000000000000000000000000000000000000000000000000081526004016107e0906119cb565b60405180910390fd5b6107fd67ecd5b1de0748799660c01b611412565b61081167f7423059c910926160c01b611412565b61082567095bdc2cec2d401660c01b611412565b6108396762ee36f93c8f165e60c01b611412565b60008054906101000a900473ffffffffffffffffffffffffffffffffffffffff1673ffffffffffffffffffffffffffffffffffffffff166323b872dd3330856040518463ffffffff1660e01b8152600401610896939291906119eb565b6020604051808303816000875af11580156108b5573d6000803e3d6000fd5b505050506040513d601f19601f820116820180604052508101906108d9919061187a565b610918576040517f08c379a000000000000000000000000000000000000000000000000000000000815260040161090f906118f3565b60405180910390fd5b61092c6772d773a0a693485b60c01b611412565b610940675d75b99150d7418d60c01b611412565b6109546782878964aa5957e960c01b611412565b610968670138cf297f5074da60c01b611412565b600160009054906101000a900473ffffffffffffffffffffffffffffffffffffffff1673ffffffffffffffffffffffffffffffffffffffff166323b872dd3330846040518463ffffffff1660e01b81526004016109c7939291906119eb565b6020604051808303816000875af11580156109e6573d6000803e3d6000fd5b505050506040513d601f19601f82011682018060405250810190610a0a919061187a565b610a49576040517f08c379a0000000000000000000000000000000000000000000000000000000008152600401610a409061195f565b60405180910390fd5b610a5d67a87e713c4152728560c01b611412565b610a7167cb0156d15bccb11060c01b611412565b610a8567e128a9d30df2bc9d60c01b611412565b6000610a9b6728fa85f454b2405760c01b611412565b610aaf6777c0bf93999ffef660c01b611412565b600060035403610af457610acd674d9c1d57abd455f060c01b611412565b610ae167c405b6868c2c7f3b60c01b611412565b8281610aed9190611a22565b9050610b3a565b610b0867234d90f905ac114460c01b611412565b610b1c6732c8feaf5c34950960c01b611412565b60045460035484610b2d9190611734565b610b3791906117a5565b90505b610b4e6707bf4cdde0025df160c01b611412565b80600260003373ffffffffffffffffffffffffffffffffffffffff1673ffffffffffffffffffffffffffffffffffffffff1681526020019081526020016000206000828254610b9d9190611a22565b92505081905550610bb867eb5f347e55557c9a60c01b611412565b8060036000828254610bca9190611a22565b92505081905550610be5678ce23bdd5f3a5cb760c01b611412565b8260046000828254610bf79190611a22565b92505081905550610c12674a6628427d69369160c01b611412565b8160056000828254610c249190611a22565b92505081905550610c3f6701ccb69dc2447e0760c01b611412565b610c53674f18aebee75ffc1f60c01b611412565b3373ffffffffffffffffffffffffffffffffffffffff167fc17cea59c2955cb181b03393209566960365771dbba9dc3d510180e7cb31208882604051610c999190611439565b60405180910390a2505050565b60008054906101000a900473ffffffffffffffffffffffffffffffffffffffff1681565b610cde67960ffd9233448d8e60c01b611412565b610cf267ef79470b37396bd260c01b611412565b610d0667bf4d837a3dec5a3d60c01b611412565b610d1a671904e77fab22fe1360c01b611412565b60008111610d5d576040517f08c379a0000000000000000000000000000000000000000000000000000000008152600401610d5490611aa2565b60405180910390fd5b610d71674318cc35595b090760c01b611412565b610d85673b8c6b05d58ea00860c01b611412565b610d9967f004a8d983f58fde60c01b611412565b610dad67c81a90f43e3f9d0560c01b611412565b60008054906101000a900473ffffffffffffffffffffffffffffffffffffffff1673ffffffffffffffffffffffffffffffffffffffff168373ffffffffffffffffffffffffffffffffffffffff16148015610e555750600160009054906101000a900473ffffffffffffffffffffffffffffffffffffffff1673ffffffffffffffffffffffffffffffffffffffff168273ffffffffffffffffffffffffffffffffffffffff16145b8015610e715750610e7067f37d6c2fc55ee37060c01b611415565b5b80610f3c5750600160009054906101000a900473ffffffffffffffffffffffffffffffffffffffff1673ffffffffffffffffffffffffffffffffffffffff168373ffffffffffffffffffffffffffffffffffffffff16148015610f1f575060008054906101000a900473ffffffffffffffffffffffffffffffffffffffff1673ffffffffffffffffffffffffffffffffffffffff168273ffffffffffffffffffffffffffffffffffffffff16145b8015610f3b5750610f3a677f27223f6685bad760c01b611415565b5b5b610f7b576040517f08c379a0000000000000000000000000000000000000000000000000000000008152600401610f7290611b0e565b60405180910390fd5b610f8f67eb30339d4305078560c01b611412565b610fa367fbafc8b48e73a93660c01b611412565b610fb7675edbaf877b99ead360c01b611412565b610fcb6714092f8dc211d67760c01b611412565b8273ffffffffffffffffffffffffffffffffffffffff166323b872dd3330846040518463ffffffff1660e01b8152600401611008939291906119eb565b6020604051808303816000875af1158015611027573d6000803e3d6000fd5b505050506040513d601f19601f8201168201806040525081019061104b919061187a565b61108a576040517f08c379a000000000000000000000000000000000000000000000000000000000815260040161108190611b7a565b60405180910390fd5b61109e678ff46031f1dc77de60c01b611412565b6110b26759d802d0c3ad1dd760c01b611412565b6110c667c6dd752a48c65e9b60c01b611412565b60006110dc67a9537ac1b56ea69760c01b611412565b6110f067c06dae70a53e964960c01b611412565b60008054906101000a900473ffffffffffffffffffffffffffffffffffffffff1673ffffffffffffffffffffffffffffffffffffffff168473ffffffffffffffffffffffffffffffffffffffff16036111e75761115767aa04c5d4213e9d4860c01b611412565b61116b67afdd71be1130970f60c01b611412565b6004546005548361117c9190611734565b61118691906117a5565b905061119c6786d810f48215d9b460c01b611412565b81600460008282546111ae9190611a22565b925050819055506111c967ac7f613a6a6a158960c01b611412565b80600560008282546111db91906117d6565b92505081905550611287565b6111fb6733875be2607575bd60c01b611412565b61120f67a1d18b3397dba1c260c01b611412565b600554600454836112209190611734565b61122a91906117a5565b905061124067bba59066787f259b60c01b611412565b81600560008282546112529190611a22565b9250508190555061126d674b46b49c16fdf61860c01b611412565b806004600082825461127f91906117d6565b925050819055505b61129b67122b52ce1dd946d760c01b611412565b6112af6748216d0dcdfd992d60c01b611412565b6112c36702d77a8083e57dfe60c01b611412565b8273ffffffffffffffffffffffffffffffffffffffff1663a9059cbb33836040518363ffffffff1660e01b81526004016112fe929190611819565b6020604051808303816000875af115801561131d573d6000803e3d6000fd5b505050506040513d601f19601f82011682018060405250810190611341919061187a565b611380576040517f08c379a000000000000000000000000000000000000000000000000000000000815260040161137790611be6565b60405180910390fd5b611394677848022fca42e0f460c01b611412565b6113a867b185c4e089c3da3a60c01b611412565b6113bc6775268012c20e193160c01b611412565b3373ffffffffffffffffffffffffffffffffffffffff167fd5a1cd88ddd329cc1ddf861a21708efa9ef3136b88e1420c21f91ef6f95ad0248383604051611404929190611c06565b60405180910390a250505050565b50565b600060019050919050565b6000819050919050565b61143381611420565b82525050565b600060208201905061144e600083018461142a565b92915050565b600073ffffffffffffffffffffffffffffffffffffffff82169050919050565b6000819050919050565b600061149961149461148f84611454565b611474565b611454565b9050919050565b60006114ab8261147e565b9050919050565b60006114bd826114a0565b9050919050565b6114cd816114b2565b82525050565b60006020820190506114e860008301846114c4565b92915050565b600080fd5b60006114fe82611454565b9050919050565b61150e816114f3565b811461151957600080fd5b50565b60008135905061152b81611505565b92915050565b600060208284031215611547576115466114ee565b5b60006115558482850161151c565b91505092915050565b61156781611420565b811461157257600080fd5b50565b6000813590506115848161155e565b92915050565b6000602082840312156115a05761159f6114ee565b5b60006115ae84828501611575565b91505092915050565b600080604083850312156115ce576115cd6114ee565b5b60006115dc85828601611575565b92505060206115ed85828601611575565b9150509250929050565b6000611602826114f3565b9050919050565b611612816115f7565b811461161d57600080fd5b50565b60008135905061162f81611609565b92915050565b60008060006060848603121561164e5761164d6114ee565b5b600061165c86828701611620565b935050602061166d86828701611620565b925050604061167e86828701611575565b9150509250925092565b600082825260208201905092915050565b7f496e76616c6964206c697175696469747920616d6f756e740000000000000000600082015250565b60006116cf601883611688565b91506116da82611699565b602082019050919050565b600060208201905081810360008301526116fe816116c2565b9050919050565b7f4e487b7100000000000000000000000000000000000000000000000000000000600052601160045260246000fd5b600061173f82611420565b915061174a83611420565b925082820261175881611420565b9150828204841483151761176f5761176e611705565b5b5092915050565b7f4e487b7100000000000000000000000000000000000000000000000000000000600052601260045260246000fd5b60006117b082611420565b91506117bb83611420565b9250826117cb576117ca611776565b5b828204905092915050565b60006117e182611420565b91506117ec83611420565b925082820390508181111561180457611803611705565b5b92915050565b611813816114f3565b82525050565b600060408201905061182e600083018561180a565b61183b602083018461142a565b9392505050565b60008115159050919050565b61185781611842565b811461186257600080fd5b50565b6000815190506118748161184e565b92915050565b6000602082840312156118905761188f6114ee565b5b600061189e84828501611865565b91505092915050565b7f546f6b656e2031207472616e73666572206661696c6564000000000000000000600082015250565b60006118dd601783611688565b91506118e8826118a7565b602082019050919050565b6000602082019050818103600083015261190c816118d0565b9050919050565b7f546f6b656e2032207472616e73666572206661696c6564000000000000000000600082015250565b6000611949601783611688565b915061195482611913565b602082019050919050565b600060208201905081810360008301526119788161193c565b9050919050565b7f416d6f756e7473206d757374206265206d6f7265207468616e20300000000000600082015250565b60006119b5601b83611688565b91506119c08261197f565b602082019050919050565b600060208201905081810360008301526119e4816119a8565b9050919050565b6000606082019050611a00600083018661180a565b611a0d602083018561180a565b611a1a604083018461142a565b949350505050565b6000611a2d82611420565b9150611a3883611420565b9250828201905080821115611a5057611a4f611705565b5b92915050565b7f496e73756666696369656e7420616d6f756e7420696e70757400000000000000600082015250565b6000611a8c601983611688565b9150611a9782611a56565b602082019050919050565b60006020820190508181036000830152611abb81611a7f565b9050919050565b7f496e76616c696420746f6b656e20706169720000000000000000000000000000600082015250565b6000611af8601283611688565b9150611b0382611ac2565b602082019050919050565b60006020820190508181036000830152611b2781611aeb565b9050919050565b7f496e70757420746f6b656e207472616e73666572206661696c65640000000000600082015250565b6000611b64601b83611688565b9150611b6f82611b2e565b602082019050919050565b60006020820190508181036000830152611b9381611b57565b9050919050565b7f4f757470757420746f6b656e207472616e73666572206661696c656400000000600082015250565b6000611bd0601c83611688565b9150611bdb82611b9a565b602082019050919050565b60006020820190508181036000830152611bff81611bc3565b9050919050565b6000604082019050611c1b600083018561142a565b611c28602083018461142a565b939250505056fea264697066735822122010387b32a684f526720a2b3b95ea8bad40704a40cb54747e50167598f769552264736f6c634300081b0033",
  "linkReferences": {},
  "deployedLinkReferences": {}
}